:100000000C9434000C9446000C9446000C9446006A
:100010000C9446000C9446000C9446000C94460048
:100020000C9446000C9446000C9446000C94460038
:100030000C9446000C9446000C9446000C94460028
:100040000C9446000C9446000C9446000C94460018
:100050000C9446000C9446000C9446000C94460008
:100060000C9446000C94460011241FBECFEFD8E03C
:10007000DEBFCDBF11E0A0E0B1E001C01D92AA310A
:10008000B107E1F70E945D000C9473000C9400002E
:100090008FEF8AB90895813019F0823019F00895F0
:1000A0005A9A08955B9A0895813019F0823019F0B8
:1000B00008955A9808955B9808951BB85A982FEFA1
:1000C00080E792E0215080409040E1F700C00000BE
:1000D0005A9A2FEF80E792E0215080409040E1F75C
:0A00E00000C00000EBCFF894FFCF42
:00000001FF
